:0E00000060C0FECFFDCFFCCFFBCFFACFF9CF13
:10000E00F8CF22C2F6CFF5CFF4CFF3CFF2CFF1CFA8
:10001E00F0CFEFCFEECFEDCF3E3E3E50554C53419D
:10002E00522054455354455200484E444C004320F0
:10003E003D2025303775004155544F004A203D2054
:10004E002530377500534156450043525348000042
:10005E0080C02D4E414E000001002D4E414E0049F4
:10006E004E460000110060012600050071013700A8
:10007E0005007601450005007B0137000500800173
:10008E00450005008501370005008A01370005008F
:10009E008F014500050094013700050099015300BA
:1000AE0005009E0158000200BC015E000100C00167
:1000BE0066000000F894EE27ECBBF1E0FBBFEBBF4F
:1000CE00E5BF8DE0A2E0BB27ED938A95E9F780E0CE
:1000DE0094E0A0E6ED930197E9F7E2E7F0E0859171
:1000EE009591009761F0A591B59105901590BF017E
:1000FE00F00105900D920197E1F7FB01F0CFEFE5CE
:10010E00EDBFE4E0EEBFC0E6D1E000C0A6D1A0E0B6
:10011E00B0E017DA5E2EA1E0B0E013DAF2D5E0938C
:10012E00A301F093A4016093A5017093A601AB9A6D
:10013E00A0E121D2F2D1E9D5A0E0E2D1A0E6B1E072
:10014E000AD2E3D5E5D5A1E7B1E0E4D5E7D5882419
:10015E009924789427D1FDD0C5D04AD0772466242F
:10016E00F4D5E17031F0AD9AF0D5EE7FF1D5E1E046
:10017E009E2EEBD5E47049F0AC98E7D5EB7FE8D531
:10018E00882019F0AD9AE1E09E2E992009F4E3D56E
:10019E00DCD5E27059F1552089F44424DCD5DED546
:1001AE00BDD5882029F0B1D5B3D5A6E7B1E004C0FE
:1001BE00ACD5AED5ABE7B1E0CED118C0AA9AE9B7AF
:1001CE00E460E9BF451490F0AA98D5D54424C3D570
:1001DE00C5D5A4D5882029F098D59AD5A0E8B1E048
:1001EE0004C093D595D5A5E8B1E0B5D1B3CFFFCF77
:1001FE00E72DC5D531F4A9D5E160C6D5C8D5CAD588
:10020E0070C0E930A0E0FA0791F4882031F088241C
:10021E007CD57ED5AAE8B1E006C0E1E08E2E75D57C
:10022E0077D5AFE8B1E097D1B2D5B4D55AC0EA30A0
:10023E00A0E0FA0771F4E0E0E093A301E093A401DB
:10024E00E093A501E093A601A2D5A4D5A7EAB1E05B
:10025E0047C0E230A0E0FA07F9F4B1D511F4AD9839
:10026E0001C0AD9AE03011F4AA9801C0AA9AE0300C
:10027E0011F4AC9801C0AC9AAB9A7DD5F894E0918C
:10028E00A301A1E0B0E069D978943FD541D5A4E9A6
:10029E00B1E040D57FD525C0E330A0E0FA0739F4B0
:1002AE00E2E35E1608F4539472D5A6D519C0E43075
:1002BE00A0E0FA0739F4E0E0E51508F45A9467D5A2
:1002CE009BD50EC0EB30A0E0FA0759F4F894E52D5B
:1002DE00A0E0B0E042D9789418D51AD5A9E9B1E0DA
:1002EE003AD10895E62DF0E0E530A0E0FA0721F4CA
:1002FE002CD5E46049D52CC0E630A0E0FA0729F4ED
:10030E009C99AB9A9D99AB9823C0E730A0E0FA0771
:10031E0029F4AD981AD5E26037D51AC0E830A0E0BE
:10032E00FA07B1F44CD511F4AD9801C0AD9AE03096
:10033E0011F4AA9801C0AA9AE03011F4AC9801C049
:10034E00AC9AAB9A18D5E1D4E3D4AEE9B1E003D1BF
:10035E000895809902C0E5E00DC0819902C0E6E0E3
:10036E0009C0829902C0E7E005C0839902C0E8E0A7
:10037E0001C0E0E0E093B401E03071F0A5EBB1E034
:10038E004CD5A091B501B091B601A83CE0E0BE07F6
:10039E0011F46090B40105C0E0E0E093B501E09384
:1003AE00B6010895859902C0869B01C002C0EBE09C
:1003BE0011C0B69902C0E1E00DC0B79902C0E2E0EB
:1003CE0009C0859902C0E3E005C0869902C0E4E049
:1003DE0001C0E0E0E093B701E03019F124D5A83E6A
:1003EE00EDEFBE07B0F0E091B701C9D411F4E9E02A
:1003FE000BC0E230A0E0FA0711F4EAE005C0EB30E2
:10040E00A0E0FA0711F4EBE07E2E12D5E1E0E093C6
:10041E00BB01E091B701E093BA01A8EBB1E0FDD4C6
:10042E0012C001D5AC3BE2E0BE0730F0772021F4DC
:10043E00E091BB01E03009F002C07090BA01E0E03B
:10044E00E093BB01F5D40895EA93EFB7EA93F6D49F
:10045E004394E991EFBFE9911895EFE3E7BBE0E034
:10046E00E8BBEFE3E4BBE0E0E5BBE0E9E1BBE0E0E5
:10047E00E2BBE3BFE2BFEFBDE3E0EEBDDFD4E0E001
:10048E00E7BDE6BDEBBDEABDE9BDE8BDE2BDE5BD3C
:10049E00E4BDE3BDE9BFE5BFEAB9E0E8E8B9E0E0F5
:1004AE00E0BFE6B9EDB9E6BF0895AA93E881E07121
:1004BE0011F0C29A01C0C298E881E07211F0C39A9D
:1004CE0001C0C398E881E07411F0C49A01C0C498C9
:1004DE00E881E07811F0C59A01C0C598B4D4C19AEC
:1004EE00B2D4C198B0D470C0AA93A881DEDFE881DF
:1004FE00E295E883A881D9DF85E88A95F1F764C093
:10050E00AA93E881F0E0E454FE4FE081A981AE0F9A
:10051E00EBDFB980A88022960895A2E098D4ACE0D3
:10052E00E3DFA1E094D4E0E0AE2EBE2E0895AA93B0
:10053E00A881AA3011F0BD1440F0E7D3A394AA2DE0
:10054E00DFDFA881AA3009F43FC0B394979AA8813F
:10055E00CBDF979839C07FD41A93A981BA81ED91D8
:10056E00A983BA831E2FE03019F0A12FE0DFF5CF5B
:10057E00188123960895AA93BA9ABB9ABC9ABD9AEB
:10058E00B99A8F9AB89AC1989798C098D880E881EE
:10059E00E058E093BE01E881E054E093BF01A4E18E
:1005AE00B0E072D55BD45AD459D4A0E27EDF88EC89
:1005BE0090E00197F1F7A8E297DFA4E095DFA5E8B8
:1005CE0093DFA6E091DFA9DF2196089544D4DED70C
:1005DE004CD412967CD73097F1F047D449D48F0182
:1005EE00309761F00230E0E01E0770F0F8013197AD
:1005FE008F01AA81BB811496ED93FC9336D412968B
:10060E000CD43197AC81A08330D461D7FF2312F084
:10061E002CD403D405C029D4EFEFFFEFED93FC9358
:10062E00BCD72596089527D4E0E8EA83EFE3EB8361
:10063E00ABD7EE85FF85EF3FAFEFFA0729F421D454
:10064E00A0E6B0E073D27AC0EF3FAFE7FA0729F425
:10065E0018D4A1E6B0E06AD271C0AB85A73010F015
:10066E00E6E0EB871B8512D411F014D4FCCF20D416
:10067E0085D719F430E00ED41BC03B851ED409F08B
:10068E0008F407C007D419D418F021D425D4FBCF11
:10069E0008C013D428F41BD42AD42FD43150F9CF48
:1006AE00F9D306D42FD429D408D410F010D414D4EE
:1006BE0010E0EB85E11710F12BD42FD423D4DF01FA
:1006CE00CB0187D2EC83FD836E837F8300D42AD641
:1006DE0018D50E2F28D42ED4FF27662777274AD574
:1006EE0017D4D2D5F4D320D778D507D4E12F1F5FF6
:1006FE00E030F9F618D4EEE2EC93DBCF20D431974C
:10070E00AA85A08330302CF43195A885B985EDE209
:10071E0003C0A885B985EBE2EC9311D410D415D49F
:10072E0090D6E05DDB01EC930AD40FD4B4D6E05D35
:10073E00DB01EC93A885B985E0E0EC932CD76096AD
:10074E00089589D3EF9761971DD710E0FE01E85AFF
:10075E00FF4F0190F081E02DE887F987FE01EA5AFC
:10076E00FF4F0190F081E02DEE83FF83F3D3E0E0A5
:10077E00F0E0ED93FC93DE01A45ABF4F4ED33197B8
:10078E00E4912E2FE03009F4A1C1E12FE03031F4D5
:10079E00253211F411E001C0E0D397C1E130B9F474
:1007AE00253211F4DAD390C112E0E0E0ED8B00E0D7
:1007BE002D3211F401E089C12B3219F4EBE2ED8BED
:1007CE0084C1203219F4E0E2ED8B7FC102C0E23029
:1007DE0039F450E013E0203311F4006876C102C002
:1007EE00E33091F4203310F02A3308F007C0AAE06A
:1007FE005A9F502DE22FE0535E0F67C140E02E321C
:10080E0011F414E062C10FC0E43099F4203310F0FB
:10081E002A3308F008C00062AAE04A9F402DE22F5A
:10082E00E0534E0F52C12C3619F4026015E04DC143
:10083E0003C0E53009F049C1E22FE33639F494D311
:10084E009AD392D3A481AA939DD33EC1E53411F0DD
:10085E00E53609F402C0E636A9F59AD39ED33BD607
:10086E00A3D3A7D3AD85AA2332F0AD89AB3241F025
:10087E00A03261F012C09FD311D496D3EDE2ED8B6E
:10088E0007FF04C0ED89EA937DD307C0EE85FF858F
:10089E00319696D33197AD89A08305FF46E0263673
:1008AE0039F489D337D64A93AB89BC89A2D107C014
:1008BE0082D330D64A932A93AC89BD89B4DE68D3ED
:1008CE0082D318C0E33729F474D382D379D37BD380
:1008DE000AC0E037A1F46DD37BD372D3AE85BF854A
:1008EE003CD11E2F08600F77403011F0411708F0F1
:1008FE0001C0142F40E0E0E0EC8B30E05EC0E43647
:10090E0011F0E93611F4046002C0E53791F4EAE023
:10091E00EC8B01FF07C0E0E0FAEC6AE97BE35AD307
:10092E001AE01FC0E0E1F7E260E070E053D315E09B
:10093E0018C0E83511F4086003C0E83709F0C4C0E8
:10094E00E0E1EC8B01FF07C0E0E0F0E060E070E179
:10095E0041D318E006C0E0E0F0E160E070E03AD389
:10096E0014E0403011F00F7701C041E001FF05C0E7
:10097E0020D313D31496AFD50AC002FF04C019D3E7
:10098E0027D34CD504C015D323D366277727EA8700
:10099E00FB876C877D8702FF0FC0AD85AA232AF4E3
:1009AE000AD329D501D3EDE2ED8BED89E03019F0B4
:1009BE001F5F4F5F01C00B7F342F00FD13C0151753
:1009CE0010F4351708F00EC007FF08C002FF04C070
:1009DE000B7F2D89115001C020E301C020E2BDD252
:1009EE005150EDCF141780F4006102FF05C0F7D20D
:1009FE0009F0515011504150E0E3EA93C3D2503008
:100A0E0009F051504150EECF312FEC89E030A9F46E
:100A1E00303091F003FF05C0EE85FF852591D0D2D1
:100A2E0005C0AE85BF852D91AE87BF8796D250305B
:100A3E0009F051503150ECCF3EC0E3D207D52E2FE6
:100A4E002A3030F003FF02C0295C01C0295A01C0D0
:100A5E00205D04FD1DC0213348F4DCD2A130E0E05E
:100A6E00BE07E0E08E07E0E09E0709F40BC04317D7
:100A7E0040F4531710F000FF01C00EC020E207FF34
:100A8E0007C020E3006102FF03C0A9D209F0515054
:100A9E0064D2503009F051503150B3D208D584D2BF
:100AAE00EC89B8D22ED1D2D495D2E889F9896A8947
:100ABE007B8964D511F600FF07C0503029F05150E4
:100ACE00E0E2EA935FD2F9CF10E055CE43D2FFD4E5
:100ADE0060D5EF966F960895FF92F82E269754D50F
:100AEE009ED2309719F4EFEFFFEF1CC0DE01169681
:100AFE007ED48D0194D2EE83FF83E0E0E887E98710
:100B0E00DE011A9674D4E3D48FD21A930A93EDEEC3
:100B1E00F2E08AD2DE011A9614DE9F011BD2E0E0CB
:100B2E00EC93F90138D52A96FF90089594D1E99166
:100B3E00F991A991B991CD0105900D920020E1F79F
:100B4E00FC01089588D1A991B991EE27FF276D91E7
:100B5E00662311F03196FBCF08957DD1AA27BB27CE
:100B6E00E991F9910590002011F01196FBCFFD014E
:100B7E000895D5D47B816A81F981E88177FB770F5F
:100B8E0067FD7160972F9E5781F078F0983190F441
:100B9E00AA27BB27882708948795B795A7959A9576
:100BAE00D1F7EA23FB23682305C0E8947727EE27C5
:100BBE00FF2766276F77769508F4606877F9A99115
:100BCE00B99189919991EA17FB076807790797FB05
:100BDE000895A5D495D4CDDF98D411F428D207C0AA
:100BEE00EEF725D2A0E0B0E080E89FE3F6D224969F
:100BFE00089541D1E0E0EA83EFE3EB83C7D4EB85C0
:100C0E00FC85EF3FAFEFFA0729F413D2A8E6B0E068
:100C1E008DDF74C0EF3FAFE7FA0729F40AD2A9E6D9
:100C2E00B0E084DF6BC0AC85AA2332F405D236D295
:100C3E0008D20CD2EDE2EC93A885A73010F0E6E0D6
:100C4E00E887188523D121F007D267D10AD2FACFCF
:100C5E000DD2CAD2F6D110E0E0E0F0E060E87FE31A
:100C6E0000D204D2A4D360F0F7D141D1FAD11F5FE4
:100C7E00173228F0DED1ADE6B0E058DF3FC0F1CF3D
:100C8E00103021F4E3D1E0E3EC9319C0FFD0B9F0BA
:100C9E00E3D143D137D1DF01CB019BDFE2D1E6D1E6
:100CAE0041D32FD20E2FD2D145D1F0E0D5D1B6D32C
:100CBE0061D2EAD2E4D138D490D2C3D1E7CFE8855D
:100CCE00E030C1F0C3D1EEE2EC93E885E150E88765
:100CDE00EF5F81F0D4D10BD1B4D1AED112D20E2FA1
:100CEE00B5D128D1F0E0CBD199D344D21DD475D251
:100CFE00A8D1EBCFAE81BF81E0E0EC934ED42D9620
:100D0E000895FF27662777270895E0E0EA93089570
:100D1E00A1E0F6CB20DCE5E0EA93FACFE7EAF1E0DA
:100D2E00FA93EA93ECE3F0E0FA93EA93E091A301ED
:100D3E00F091A4016091A5017091A601EBD384E01E
:100D4E00CBDE2896A7EAB1E006CCE091B201089579
:100D5E00E093B2010895F9DFED7FFACFAC9A9924B2
:100D6E00A3EAB1E0BED3EF5FFF4F6F4F7F4FBED30D
:100D7E00E5E0EA93CDCFE9B7EB7FE9BF0895F0E068
:100D8E00E130A0E0FA070895E093B2010895E5E09E
:100D9E00EA93BECFE7EAF1E0FA93EA93ECE3F0E0F0
:100DAE00FA93EA93E091A301F091A4016091A50159
:100DBE007091A601AFD384E08FDE28960895E0E00F
:100DCE004E2EE170EE0FEE0F0E2EBFDFEB7FE02901
:100DDE00DBDF19D3E170F070E170EE0F0E2EB5DF90
:100DEE00ED7FE029D1DF8E2EE1700E2EAEDFEE7F8D
:100DFE00E029CADFE0300895E7EAF1E0FA93EA93DA
:100E0E00EAE4F0E0FA93EA93E52D7BDF83D384E006
:100E1E0063DE2896A7EAB1E00895ED91FD91319633
:100E2E00FE93EE930895A091B801B091B901089583
:100E3E00E0E0E093B801E093B9010895EFECEDBD69
:100E4E00ECE2ECBD08958DE08A95F1F708954CDB48
:100E5E00A3E0B0E019C1BA93AA930895A0E325DBED
:100E6E0088EC90E00197F1F70895AA81BB8108956F
:100E7E0014962DD30895EFDF2497E0E0E883E983FD
:100E8E000895E885F985FA93EA930895E12F1150B4
:100E9E00E0300895AC81BD818E819F81E0E0F0E06D
:100EAE0060E271E4F1D1EC83FD836E837F8308955C
:100EBE00EC85FD856E857F850895EC81FD816E81C3
:100ECE007F81AC85BD858E859F8571D20895AC8559
:100EDE00BD858E859F850895EDECFCEC6CEC7DE375
:100EEE00D3D1EC87FD876E877F873F5F0895E0E063
:100EFE00F0E060E271E4C8D10895EC87FD876E875B
:100F0E007F870895A0E0B0E080E09FE36DD1089563
:100F1E00AC81BD818E819F810895EDECFCEC6CEC73
:100F2E007DE3B2D10895A885B9851196A887B987B2
:100F3E0011970895E02FE05DEC93E02F0895E8857A
:100F4E00F9853196E887F98708953197BF01A32F68
:100F5E00EAE00895AE81BF8108952A93AF81B885E6
:100F6E00E985FA8509950895FE01E65AFF4F01902D
:100F7E00F081E02D08953497DE01A65ABF4FED9310
:100F8E00FC930895AF81B885E985FA850995089592
:100F9E00FE017696EE87FF870895DE01A65ABF4FB3
:100FAE000D90BC91A02D0895EA87FB876C877D87F5
:100FBE000895DADFE0CFEA85FB856C857D8508959F
:100FCE00EE87FF870895AE85BF85BCDD1E2F089581
:100FDE00E4DF4ECFE88BF98B6A8B7B8B08950B7F0A
:100FEE00ED89EA93DE01A95ABF4F0D90BC91A02D59
:100FFE00FE01E75AFF4F0190F081E02D0995503028
:10100E000895E889F9896A897B89AA85BB858C85CB
:10101E009D850895A889B9898A899B890895DE01DD
:10102E001C96E5D154D20895FA93EA93089563D2AB
:10103E000895EE81FF81F8CFE985FA856B857C8571
:10104E000895E987FA876B877C87089583DF119669
:10105E00AE83BF8311970895AA81BB818C819D8138
:10106E000895EA83FB836C837D830895EA81FB8177
:10107E006C817D81A985BA858B859C850895A9850E
:10108E00BA858B859C850895109639F080ED97E092
:10109E000197F1F7A8951197C9F708953097604019
:1010AE00704009F070580895552342F4503811F4E9
:1010BE00E0FF04C03196691F791F6BF050E8572787
:1010CE0011F45F93CFC05F3F31F0660F000C579560
:1010DE006795752F08955F9300200AF0CFC0C8C0A2
:1010EE0050E8192E1522880F991F9527550F8795B1
:1010FE0050E8072E0522660F771F7527550F679547
:10110E000895689401C0E8945F93F2DF703818F088
:10111E007F3F08F4A7C056E1571BAAF451955830EB
:10112E000EF4593030F0EFEFFFEF6FEF7FE777F906
:10113E001AC077275523B9F0EE0FFF1F661F771FD2
:10114E005A95D1F710C07727583028F0EF2FF62F89
:10115E00672F5850F9CF552331F076956795F7954F
:10116E00E7955A95D1F700200AF445D15F9108957D
:10117E00689401C0E894309760407040B1F000244C
:10118E0026F0772312F4009436D1172E7EE111202B
:10119E0032F07A95EE0FFF1F661F111CF9CFEF2F5D
:1011AE00F62F612D5F938ADF5F9108954F93AF0104
:1011BE00FD01DA01AB01BC01CA01402D012C142E38
:1011CE004F910895EA0FFB1F681F0895E095F09563
:1011DE006095EF5FFF4F6F4F08955F9381DF9038FB
:1011EE0071F150E8152604C05F937ADF903839F11B
:1011FE00703821F1572F591B2BF112F4D7DFFACF8C
:10120E00583118F0AA27BB278827583028F0AB2F63
:10121E00B82F88275850F9CF552329F08695B795C2
:10122E00A7955A95D9F7502D512572F0CBDF38F48A
:10123E006795F795E795739513F420C0B7DF3EDFFA
:10124E005F910895D8F7FBCFEA1BFB0B680B51F0AB
:10125E0010F40094BBDF662392F3EE0FFF1F661FA0
:10126E007A95CBF7EE27FF27662777275F910895AC
:10127E00EFEFFFEF6FE77FEF5F910895EFEFFFEF77
:10128E006FE77FE75F9108955F932ADF703851F320
:10129E00903841F301240894791F23F41CF30020A5
:1012AE003AF3ECCF0F921F932F933F934F93112747
:1012BE0022279927689FA0018F9F302D410D591F1E
:1012CE006B9F300D411D591F8E9F27D0BF9F25D07C
:1012DE006A9F23D0BE9F1DD0AF9F1BD0AE9F110D16
:1012EE00291F391F491F591FE32FF42F652F522F26
:1012FE004F913F912F911F910F9066232AF0550F1A
:10130E00EE1FFF1F661F02C073954BF2CDDE5F917D
:10131E000895100D211D391F02C0200D311D491FCA
:10132E00591F08955F93DCDE703821F411200AF402
:10133E009FCFA4CF903809F495CF01240894970B32
:10134E001BF4D4F30020F3CF792F1F932F933F93E9
:10135E004F9311241127222733274427552790E234
:10136E00AE17BF078607410730F0AE1BBF0B860BCB
:10137E00410B089401C08894551F221F331F111C66
:10138E00AA1FBB1F881F441F9A9551F7F901612DA3
:10139E004F913F912F911F91662332F0550FEE1F03
:1013AE00FF1F661F7A9543F27FDE5F9108959923A2
:1013BE009AF0772342F0971748F029F4AE17BF073B
:1013CE00860720F031F098948894089598940894A4
:1013DE0008951894889408957723C2F7971798F371
:1013EE00A9F7EA17FB07680788F399F3ECCF0024F7
:1013FE00AF0DB01D0895F09560957095E195FF4F76
:10140E006F4F7F4F0895F695E795F695E7950895FA
:10141E00FE2FFF0FFF0B6F2F7F2F08956F2F660F7D
:10142E00660B762F0895002498E0AA0F001C0E1A62
:10143E0010F40E0E01C0A1609A95B9F7EA2FA02DF7
:10144E00089539D0F0DF0EF4E19508953F934F9350
:10145E005F93002411244427552730E2AA0FBB1FA7
:10146E00881F991F001C111C441F551F0E1A1F0A9E
:10147E00460B570B28F40E0E1F1E461F571F01C09A
:10148E00A1603A9559F7FD01BC01D001CA015F91E7
:10149E004F913F910895E894A7FF02C0A1956894DB
:1014AE00E7FDE195C0DFEA2F0EF4E1950895CEDF5A
:1014BE00FD01BC010895E894E7FF02C0E195689430
:1014CE00A7FF04C0A19500F8039400FA0895ED91CA
:1014DE00FC9111970895ED91FD916D917C9113976B
:1014EE000895ED91FD916D917D9108957E936E938A
:1014FE00FE93EE930895E881F9816A817B810895C8
:10150E00A881B9818A819B810895E883F9836A83D2
:10151E007B8308957A936A93FA93EA9308959A9344
:10152E008A93BA93AA930895182E862F612D192E99
:10153E00972F712D1B2EBF2FF12D1A2EAE2FE12DB1
:10154E000895E199FECFFF93FFB7F894AEBBBFBBF2
:10155E00E09AEDB3FFBFFF910895E19B02C0A895FD
:10156E00FCCF9FB7F894AEBBBFBBE09A8DB3E81724
:10157E0019F0EDBBE29AE19A9FBF08953097604053
:10158E00704008955A934A933A932A931A930A9362
:10159E0008955D814C813B812A81198108810895CE
:00000001FF
